{
  "contractName": "Doctor",
  "abi": [
    {
      "constant": true,
      "inputs": [],
      "name": "getDoctorInfo",
      "outputs": [
        {
          "name": "",
          "type": "string"
        },
        {
          "name": "",
          "type": "address[]"
        }
      ],
      "payable": false,
      "stateMutability": "view",
      "type": "function"
    },
    {
      "constant": false,
      "inputs": [
        {
          "name": "_name",
          "type": "string"
        }
      ],
      "name": "signupDoctor",
      "outputs": [],
      "payable": false,
      "stateMutability": "nonpayable",
      "type": "function"
    }
  ],
  "bytecode": "0x608060405234801561001057600080fd5b50610775806100206000396000f30060806040526004361061004c576000357c0100000000000000000000000000000000000000000000000000000000900463ffffffff1680636459d52f14610051578063b380f5c6146100ba575b600080fd5b34801561005d57600080fd5b506100b8600480360381019080803590602001908201803590602001908080601f0160208091040260200160405190810160405280939291908181526020018383808284378201915050505050509192919290505050610192565b005b3480156100c657600080fd5b506100cf6103cf565b604051808060200180602001838103835285818151815260200191508051906020019080838360005b838110156101135780820151818401526020810190506100f8565b50505050905090810190601f1680156101405780820380516001836020036101000a031916815260200191505b50838103825284818151815260200191508051906020019060200280838360005b8381101561017c578082015181840152602081019050610161565b5050505090500194505050505060405180910390f35b60008060003373ffffffffffffffffffffffffffffffffffffffff1673ffffffffffffffffffffffffffffffffffffffff1681526020019081526020016000209050604051806000019050604051809103902060001916826040518082805190602001908083835b60208310151561021f57805182526020820191506020810190506020830392506101fa565b6001836020036101000a0380198251168184511680821785525050505050509050019150506040518091039020600019161415151561025d57600080fd5b60008160010160009054906101000a900473ffffffffffffffffffffffffffffffffffffffff1673ffffffffffffffffffffffffffffffffffffffff16111515156102a757600080fd5b6060604051908101604052808381526020013373ffffffffffffffffffffffffffffffffffffffff16815260200160006040519080825280602002602001820160405280156103055781602001602082028038833980820191505090505b508152506000803373ffffffffffffffffffffffffffffffffffffffff1673ffffffffffffffffffffffffffffffffffffffff16815260200190815260200160002060008201518160000190805190602001906103639291906105d7565b5060208201518160010160006101000a81548173ffffffffffffffffffffffffffffffffffffffff021916908373ffffffffffffffffffffffffffffffffffffffff16021790555060408201518160020190805190602001906103c7929190610657565b509050505050565b60608060003360008060008373ffffffffffffffffffffffffffffffffffffffff1673ffffffffffffffffffffffffffffffffffffffff168152602001908152602001600020905060008160010160009054906101000a900473ffffffffffffffffffffffffffffffffffffffff1673ffffffffffffffffffffffffffffffffffffffff1611151561046057600080fd5b6000803373ffffffffffffffffffffffffffffffffffffffff1673ffffffffffffffffffffffffffffffffffffffff16815260200190815260200160002092508260000183600201818054600181600116156101000203166002900480601f01602080910402602001604051908101604052809291908181526020018280546001816001161561010002031660029004801561053d5780601f106105125761010080835404028352916020019161053d565b820191906000526020600020905b81548152906001019060200180831161052057829003601f168201915b50505050509150808054806020026020016040519081016040528092919081815260200182805480156105c557602002820191906000526020600020905b8160009054906101000a900473ffffffffffffffffffffffffffffffffffffffff1673ffffffffffffffffffffffffffffffffffffffff168152602001906001019080831161057b575b50505050509050945094505050509091565b828054600181600116156101000203166002900490600052602060002090601f016020900481019282601f1061061857805160ff1916838001178555610646565b82800160010185558215610646579182015b8281111561064557825182559160200191906001019061062a565b5b50905061065391906106e1565b5090565b8280548282559060005260206000209081019282156106d0579160200282015b828111156106cf5782518260006101000a81548173ffffffffffffffffffffffffffffffffffffffff021916908373ffffffffffffffffffffffffffffffffffffffff16021790555091602001919060010190610677565b5b5090506106dd9190610706565b5090565b61070391905b808211156106ff5760008160009055506001016106e7565b5090565b90565b61074691905b8082111561074257600081816101000a81549073ffffffffffffffffffffffffffffffffffffffff02191690555060010161070c565b5090565b905600a165627a7a723058209658adc5279bce93a423b2127c6229d73dad03fa1077fc658b373e2d8bbca7d40029",
  "source": "pragma solidity ^0.4.18;\r\n\r\ncontract Doctor {\r\n    mapping (address => doctor) internal doctors;\r\n    mapping (address => mapping(address => uint)) internal doctorToPatient;\r\n    \r\n    struct doctor {\r\n        string name;\r\n        address id;\r\n        address[] patient_list;\r\n    }\r\n    \r\n    modifier checkDoctor(address id) {\r\n        doctor d = doctors[id];\r\n        require(d.id > 0x0);//check if doctor exist\r\n        _;\r\n    }\r\n    \r\n    function getDoctorInfo() public view checkDoctor(msg.sender) returns(string, address[]){\r\n        doctor d = doctors[msg.sender];\r\n        return (d.name, d.patient_list);\r\n    }\r\n    \r\n    function signupDoctor(string _name) public {\r\n        doctor d = doctors[msg.sender];\r\n        require(keccak256(_name) != keccak256(\"\"));\r\n        require(!(d.id > 0x0));\r\n\r\n        doctors[msg.sender] = doctor({name:_name,id:msg.sender,patient_list:new address[](0)});\r\n    }    \r\n    \r\n}",
  "sourcePath": "D:\\Tut\\ethereum_apps\\test\\digital_health_care6\\contracts\\doctor.sol",
  "compiler": {
    "name": "solc",
    "version": "0.4.24+commit.e67f0147.Emscripten.clang"
  },
  "schemaVersion": "2.0.1",
  "updatedAt": "2018-09-09T09:17:21.996Z"
}