{
  "contractName": "HealthCare",
  "abi": [
    {
      "constant": true,
      "inputs": [],
      "name": "getPatientInfo",
      "outputs": [
        {
          "name": "",
          "type": "string"
        },
        {
          "name": "",
          "type": "uint8"
        },
        {
          "name": "",
          "type": "bytes32[]"
        },
        {
          "name": "",
          "type": "address[]"
        }
      ],
      "payable": false,
      "stateMutability": "view",
      "type": "function"
    },
    {
      "constant": false,
      "inputs": [
        {
          "name": "_name",
          "type": "string"
        }
      ],
      "name": "signupDoctor",
      "outputs": [],
      "payable": false,
      "stateMutability": "nonpayable",
      "type": "function"
    },
    {
      "constant": false,
      "inputs": [
        {
          "name": "_name",
          "type": "string"
        },
        {
          "name": "_age",
          "type": "uint8"
        }
      ],
      "name": "signupPatient",
      "outputs": [],
      "payable": false,
      "stateMutability": "nonpayable",
      "type": "function"
    },
    {
      "constant": true,
      "inputs": [],
      "name": "getDoctorInfo",
      "outputs": [
        {
          "name": "",
          "type": "string"
        },
        {
          "name": "",
          "type": "address[]"
        }
      ],
      "payable": false,
      "stateMutability": "view",
      "type": "function"
    },
    {
      "inputs": [],
      "payable": false,
      "stateMutability": "nonpayable",
      "type": "constructor"
    },
    {
      "constant": true,
      "inputs": [
        {
          "name": "_user",
          "type": "address"
        }
      ],
      "name": "checkProfile",
      "outputs": [
        {
          "name": "",
          "type": "string"
        },
        {
          "name": "",
          "type": "string"
        }
      ],
      "payable": false,
      "stateMutability": "view",
      "type": "function"
    },
    {
      "constant": false,
      "inputs": [
        {
          "name": "doctor_id",
          "type": "address"
        }
      ],
      "name": "grantAccessToDoctor",
      "outputs": [],
      "payable": false,
      "stateMutability": "nonpayable",
      "type": "function"
    },
    {
      "constant": false,
      "inputs": [
        {
          "name": "_file_name",
          "type": "string"
        },
        {
          "name": "_file_type",
          "type": "string"
        },
        {
          "name": "_fileHash",
          "type": "bytes32"
        },
        {
          "name": "_file_secret",
          "type": "string"
        }
      ],
      "name": "addFile",
      "outputs": [],
      "payable": false,
      "stateMutability": "nonpayable",
      "type": "function"
    },
    {
      "constant": true,
      "inputs": [
        {
          "name": "pat",
          "type": "address"
        }
      ],
      "name": "getPatientInfoForDoctor",
      "outputs": [
        {
          "name": "",
          "type": "string"
        },
        {
          "name": "",
          "type": "uint8"
        },
        {
          "name": "",
          "type": "address"
        },
        {
          "name": "",
          "type": "bytes32[]"
        }
      ],
      "payable": false,
      "stateMutability": "view",
      "type": "function"
    },
    {
      "constant": true,
      "inputs": [
        {
          "name": "fileHashId",
          "type": "bytes32"
        },
        {
          "name": "role",
          "type": "string"
        },
        {
          "name": "id",
          "type": "address"
        },
        {
          "name": "pat",
          "type": "address"
        }
      ],
      "name": "getFileSecret",
      "outputs": [
        {
          "name": "",
          "type": "string"
        }
      ],
      "payable": false,
      "stateMutability": "view",
      "type": "function"
    },
    {
      "constant": true,
      "inputs": [
        {
          "name": "doc",
          "type": "address"
        },
        {
          "name": "pat",
          "type": "address"
        },
        {
          "name": "fileHashId",
          "type": "bytes32"
        }
      ],
      "name": "getFileInfoDoctor",
      "outputs": [
        {
          "name": "",
          "type": "string"
        },
        {
          "name": "",
          "type": "string"
        }
      ],
      "payable": false,
      "stateMutability": "view",
      "type": "function"
    },
    {
      "constant": true,
      "inputs": [
        {
          "name": "pat",
          "type": "address"
        },
        {
          "name": "fileHashId",
          "type": "bytes32"
        }
      ],
      "name": "getFileInfoPatient",
      "outputs": [
        {
          "name": "",
          "type": "string"
        },
        {
          "name": "",
          "type": "string"
        }
      ],
      "payable": false,
      "stateMutability": "view",
      "type": "function"
    }
  ],
  "bytecode": "0x608060405234801561001057600080fd5b5033600660006101000a81548173ffffffffffffffffffffffffffffffffffffffff021916908373ffffffffffffffffffffffffffffffffffffffff1602179055506132a1806100616000396000f3006080604052600436106100af576000357c0100000000000000000000000000000000000000000000000000000000900463ffffffff16806301d99258146100b45780631c8e251c146101dc578063326df6641461021f5780636459d52f1461034c5780637120203a146103b55780637f34cf941461042b5780639f6a7a1114610581578063b259832d14610684578063b380f5c6146107ba578063cf954d4514610892578063fe59cc1a146109c2575b600080fd5b3480156100c057600080fd5b506100f5600480360381019080803573ffffffffffffffffffffffffffffffffffffffff169060200190929190505050610b06565b604051808060200180602001838103835285818151815260200191508051906020019080838360005b8381101561013957808201518184015260208101905061011e565b50505050905090810190601f1680156101665780820380516001836020036101000a031916815260200191505b50838103825284818151815260200191508051906020019080838360005b8381101561019f578082015181840152602081019050610184565b50505050905090810190601f1680156101cc5780820380516001836020036101000a031916815260200191505b5094505050505060405180910390f35b3480156101e857600080fd5b5061021d600480360381019080803573ffffffffffffffffffffffffffffffffffffffff169060200190929190505050610e5b565b005b34801561022b57600080fd5b506102346111e1565b60405180806020018560ff1660ff1681526020018060200180602001848103845288818151815260200191508051906020019080838360005b8381101561028857808201518184015260208101905061026d565b50505050905090810190601f1680156102b55780820380516001836020036101000a031916815260200191505b50848103835286818151815260200191508051906020019060200280838360005b838110156102f15780820151818401526020810190506102d6565b50505050905001848103825285818151815260200191508051906020019060200280838360005b83811015610333578082015181840152602081019050610318565b5050505090500197505050505050505060405180910390f35b34801561035857600080fd5b506103b3600480360381019080803590602001908201803590602001908080601f0160208091040260200160405190810160405280939291908181526020018383808284378201915050505050509192919290505050611461565b005b3480156103c157600080fd5b50610429600480360381019080803590602001908201803590602001908080601f0160208091040260200160405190810160405280939291908181526020018383808284378201915050505050509192919290803560ff16906020019092919050505061169e565b005b34801561043757600080fd5b5061049a600480360381019080803573ffffffffffffffffffffffffffffffffffffffff169060200190929190803573ffffffffffffffffffffffffffffffffffffffff169060200190929190803560001916906020019092919050505061197c565b604051808060200180602001838103835285818151815260200191508051906020019080838360005b838110156104de5780820151818401526020810190506104c3565b50505050905090810190601f16801561050b5780820380516001836020036101000a031916815260200191505b50838103825284818151815260200191508051906020019080838360005b83811015610544578082015181840152602081019050610529565b50505050905090810190601f1680156105715780820380516001836020036101000a031916815260200191505b5094505050505060405180910390f35b34801561058d57600080fd5b50610682600480360381019080803590602001908201803590602001908080601f0160208091040260200160405190810160405280939291908181526020018383808284378201915050505050509192919290803590602001908201803590602001908080601f01602080910402602001604051908101604052809392919081815260200183838082843782019150505050505091929192908035600019169060200190929190803590602001908201803590602001908080601f0160208091040260200160405190810160405280939291908181526020018383808284378201915050505050509192919290505050611e1c565b005b34801561069057600080fd5b506106d3600480360381019080803573ffffffffffffffffffffffffffffffffffffffff1690602001909291908035600019169060200190929190505050612081565b604051808060200180602001838103835285818151815260200191508051906020019080838360005b838110156107175780820151818401526020810190506106fc565b50505050905090810190601f1680156107445780820380516001836020036101000a031916815260200191505b50838103825284818151815260200191508051906020019080838360005b8381101561077d578082015181840152602081019050610762565b50505050905090810190601f1680156107aa5780820380516001836020036101000a031916815260200191505b5094505050505060405180910390f35b3480156107c657600080fd5b506107cf612492565b604051808060200180602001838103835285818151815260200191508051906020019080838360005b838110156108135780820151818401526020810190506107f8565b50505050905090810190601f1680156108405780820380516001836020036101000a031916815260200191505b50838103825284818151815260200191508051906020019060200280838360005b8381101561087c578082015181840152602081019050610861565b5050505090500194505050505060405180910390f35b34801561089e57600080fd5b506109476004803603810190808035600019169060200190929190803590602001908201803590602001908080601f0160208091040260200160405190810160405280939291908181526020018383808284378201915050505050509192919290803573ffffffffffffffffffffffffffffffffffffffff169060200190929190803573ffffffffffffffffffffffffffffffffffffffff16906020019092919050505061269a565b6040518080602001828103825283818151815260200191508051906020019080838360005b8381101561098757808201518184015260208101905061096c565b50505050905090810190601f1680156109b45780820380516001836020036101000a031916815260200191505b509250505060405180910390f35b3480156109ce57600080fd5b50610a03600480360381019080803573ffffffffffffffffffffffffffffffffffffffff169060200190929190505050612a4c565b60405180806020018560ff1660ff1681526020018473ffffffffffffffffffffffffffffffffffffffff1673ffffffffffffffffffffffffffffffffffffffff16815260200180602001838103835287818151815260200191508051906020019080838360005b83811015610a85578082015181840152602081019050610a6a565b50505050905090810190601f168015610ab25780820380516001836020036101000a031916815260200191505b50838103825284818151815260200191508051906020019060200280838360005b83811015610aee578082015181840152602081019050610ad3565b50505050905001965050505050505060405180910390f35b606080600080600660009054906101000a900473ffffffffffffffffffffffffffffffffffffffff1673ffffffffffffffffffffffffffffffffffffffff163373ffffffffffffffffffffffffffffffffffffffff16141515610b6857600080fd5b600260008673ffffffffffffffffffffffffffffffffffffffff1673ffffffffffffffffffffffffffffffffffffffff16815260200190815260200160002091506000808673ffffffffffffffffffffffffffffffffffffffff1673ffffffffffffffffffffffffffffffffffffffff168152602001908152602001600020905060008260010160019054906101000a900473ffffffffffffffffffffffffffffffffffffffff1673ffffffffffffffffffffffffffffffffffffffff161115610d0b5781600001808054600181600116156101000203166002900480601f016020809104026020016040519081016040528092919081815260200182805460018160011615610100020316600290048015610cc55780601f10610c9a57610100808354040283529160200191610cc5565b820191906000526020600020905b815481529060010190602001808311610ca857829003601f168201915b505050505090506040805190810160405280600781526020017f70617469656e740000000000000000000000000000000000000000000000000081525093509350610e54565b60008160010160009054906101000a900473ffffffffffffffffffffffffffffffffffffffff1673ffffffffffffffffffffffffffffffffffffffff161115610e2d5780600001808054600181600116156101000203166002900480601f016020809104026020016040519081016040528092919081815260200182805460018160011615610100020316600290048015610de75780601f10610dbc57610100808354040283529160200191610de7565b820191906000526020600020905b815481529060010190602001808311610dca57829003601f168201915b505050505090506040805190810160405280600681526020017f646f63746f72000000000000000000000000000000000000000000000000000081525093509350610e54565b60206040519081016040528060008152506020604051908101604052806000815250935093505b5050915091565b6000806000336000600260008373ffffffffffffffffffffffffffffffffffffffff1673ffffffffffffffffffffffffffffffffffffffff168152602001908152602001600020905060008160010160019054906101000a900473ffffffffffffffffffffffffffffffffffffffff1673ffffffffffffffffffffffffffffffffffffffff16111515610eed57600080fd5b8560008060008373ffffffffffffffffffffffffffffffffffffffff1673ffffffffffffffffffffffffffffffffffffffff168152602001908152602001600020905060008160010160009054906101000a900473ffffffffffffffffffffffffffffffffffffffff1673ffffffffffffffffffffffffffffffffffffffff16111515610f7957600080fd5b600260003373ffffffffffffffffffffffffffffffffffffffff1673ffffffffffffffffffffffffffffffffffffffff16815260200190815260200160002096506000808973ffffffffffffffffffffffffffffffffffffffff1673ffffffffffffffffffffffffffffffffffffffff16815260200190815260200160002095506001600360003373ffffffffffffffffffffffffffffffffffffffff1673ffffffffffffffffffffffffffffffffffffffff16815260200190815260200160002060008a73ffffffffffffffffffffffffffffffffffffffff1673ffffffffffffffffffffffffffffffffffffffff1681526020019081526020016000205410151561108557600080fd5b866003018890806001815401808255809150509060018203906000526020600020016000909192909190916101000a81548173ffffffffffffffffffffffffffffffffffffffff021916908373ffffffffffffffffffffffffffffffffffffffff160217905550945084600360003373ffffffffffffffffffffffffffffffffffffffff1673ffffffffffffffffffffffffffffffffffffffff16815260200190815260200160002060008a73ffffffffffffffffffffffffffffffffffffffff1673ffffffffffffffffffffffffffffffffffffffff16815260200190815260200160002081905550856002013390806001815401808255809150509060018203906000526020600020016000909192909190916101000a81548173ffffffffffffffffffffffffffffffffffffffff021916908373ffffffffffffffffffffffffffffffffffffffff160217905550505050505050505050565b606060006060806000336000600260008373ffffffffffffffffffffffffffffffffffffffff1673ffffffffffffffffffffffffffffffffffffffff168152602001908152602001600020905060008160010160019054906101000a900473ffffffffffffffffffffffffffffffffffffffff1673ffffffffffffffffffffffffffffffffffffffff1611151561127757600080fd5b600260003373ffffffffffffffffffffffffffffffffffffffff1673ffffffffffffffffffffffffffffffffffffffff1681526020019081526020016000209250826000018360010160009054906101000a900460ff168460020185600301838054600181600116156101000203166002900480601f01602080910402602001604051908101604052809291908181526020018280546001816001161561010002031660029004801561136b5780601f106113405761010080835404028352916020019161136b565b820191906000526020600020905b81548152906001019060200180831161134e57829003601f168201915b50505050509350818054806020026020016040519081016040528092919081815260200182805480156113c157602002820191906000526020600020905b815460001916815260200190600101908083116113a9575b505050505091508080548060200260200160405190810160405280929190818152602001828054801561144957602002820191906000526020600020905b8160009054906101000a900473ffffffffffffffffffffffffffffffffffffffff1673ffffffffffffffffffffffffffffffffffffffff16815260200190600101908083116113ff575b50505050509050965096509650965050505090919293565b60008060003373ffffffffffffffffffffffffffffffffffffffff1673ffffffffffffffffffffffffffffffffffffffff1681526020019081526020016000209050604051806000019050604051809103902060001916826040518082805190602001908083835b6020831015156114ee57805182526020820191506020810190506020830392506114c9565b6001836020036101000a0380198251168184511680821785525050505050509050019150506040518091039020600019161415151561152c57600080fd5b60008160010160009054906101000a900473ffffffffffffffffffffffffffffffffffffffff1673ffffffffffffffffffffffffffffffffffffffff161115151561157657600080fd5b6060604051908101604052808381526020013373ffffffffffffffffffffffffffffffffffffffff16815260200160006040519080825280602002602001820160405280156115d45781602001602082028038833980820191505090505b508152506000803373ffffffffffffffffffffffffffffffffffffffff1673ffffffffffffffffffffffffffffffffffffffff1681526020019081526020016000206000820151816000019080519060200190611632929190613069565b5060208201518160010160006101000a81548173ffffffffffffffffffffffffffffffffffffffff021916908373ffffffffffffffffffffffffffffffffffffffff16021790555060408201518160020190805190602001906116969291906130e9565b509050505050565b6000600260003373ffffffffffffffffffffffffffffffffffffffff1673ffffffffffffffffffffffffffffffffffffffff1681526020019081526020016000209050604051806000019050604051809103902060001916836040518082805190602001908083835b60208310151561172c5780518252602082019150602081019050602083039250611707565b6001836020036101000a0380198251168184511680821785525050505050509050019150506040518091039020600019161415151561176a57600080fd5b60008260ff16118015611780575060648260ff16105b151561178b57600080fd5b60008160010160019054906101000a900473ffffffffffffffffffffffffffffffffffffffff1673ffffffffffffffffffffffffffffffffffffffff16111515156117d557600080fd5b60a0604051908101604052808481526020018360ff1681526020013373ffffffffffffffffffffffffffffffffffffffff168152602001600060405190808252806020026020018201604052801561183c5781602001602082028038833980820191505090505b50815260200160006040519080825280602002602001820160405280156118725781602001602082028038833980820191505090505b50815250600260003373ffffffffffffffffffffffffffffffffffffffff1673ffffffffffffffffffffffffffffffffffffffff16815260200190815260200160002060008201518160000190805190602001906118d1929190613069565b5060208201518160010160006101000a81548160ff021916908360ff16021790555060408201518160010160016101000a81548173ffffffffffffffffffffffffffffffffffffffff021916908373ffffffffffffffffffffffffffffffffffffffff1602179055506060820151816002019080519060200190611956929190613173565b5060808201518160030190805190602001906119739291906130e9565b50905050505050565b6060806119876131c6565b600660009054906101000a900473ffffffffffffffffffffffffffffffffffffffff1673ffffffffffffffffffffffffffffffffffffffff163373ffffffffffffffffffffffffffffffffffffffff161415156119e357600080fd5b846000600260008373ffffffffffffffffffffffffffffffffffffffff1673ffffffffffffffffffffffffffffffffffffffff168152602001908152602001600020905060008160010160019054906101000a900473ffffffffffffffffffffffffffffffffffffffff1673ffffffffffffffffffffffffffffffffffffffff16111515611a7057600080fd5b8760008060008373ffffffffffffffffffffffffffffffffffffffff1673ffffffffffffffffffffffffffffffffffffffff168152602001908152602001600020905060008160010160009054906101000a900473ffffffffffffffffffffffffffffffffffffffff1673ffffffffffffffffffffffffffffffffffffffff16111515611afc57600080fd5b6040805190810160405280600681526020017f646f63746f7200000000000000000000000000000000000000000000000000008152508a898b600060405180807f646f63746f7200000000000000000000000000000000000000000000000000008152506006019050604051809103902060001916856040518082805190602001908083835b602083101515611ba75780518252602082019150602081019050602083039250611b82565b6001836020036101000a0380198251168184511680821785525050505050509050019150506040518091039020600019161415611cd8576000600360008473ffffffffffffffffffffffffffffffffffffffff1673ffffffffffffffffffffffffffffffffffffffff16815260200190815260200160002060008673ffffffffffffffffffffffffffffffffffffffff1673ffffffffffffffffffffffffffffffffffffffff16815260200190815260200160002054111515611c6957600080fd5b600460008373ffffffffffffffffffffffffffffffffffffffff1673ffffffffffffffffffffffffffffffffffffffff16815260200190815260200160002060008460001916600019168152602001908152602001600020549050600081111515611cd357600080fd5b611deb565b60405180807f70617469656e74000000000000000000000000000000000000000000000000008152506007019050604051809103902060001916856040518082805190602001908083835b602083101515611d485780518252602082019150602081019050602083039250611d23565b6001836020036101000a0380198251168184511680821785525050505050509050019150506040518091039020600019161415611dea57600460008573ffffffffffffffffffffffffffffffffffffffff1673ffffffffffffffffffffffffffffffffffffffff16815260200190815260200160002060008460001916600019168152602001908152602001600020549050600081111515611de957600080fd5b5b5b611df48d612d7f565b995089600001518a602001518191508090509b509b5050505050505050505050935093915050565b600080336000600260008373ffffffffffffffffffffffffffffffffffffffff1673ffffffffffffffffffffffffffffffffffffffff168152602001908152602001600020905060008160010160019054906101000a900473ffffffffffffffffffffffffffffffffffffffff1673ffffffffffffffffffffffffffffffffffffffff16111515611eac57600080fd5b600260003373ffffffffffffffffffffffffffffffffffffffff1673ffffffffffffffffffffffffffffffffffffffff16815260200190815260200160002093506001600460003373ffffffffffffffffffffffffffffffffffffffff1673ffffffffffffffffffffffffffffffffffffffff1681526020019081526020016000206000886000191660001916815260200190815260200160002054101515611f5457600080fd5b606060405190810160405280898152602001888152602001868152506005600088600019166000191681526020019081526020016000206000820151816000019080519060200190611fa7929190613069565b506020820151816001019080519060200190611fc4929190613069565b506040820151816002019080519060200190611fe1929190613069565b50905050836002018690806001815401808255809150509060018203906000526020600020016000909192909190915090600019169055925082600460003373ffffffffffffffffffffffffffffffffffffffff1673ffffffffffffffffffffffffffffffffffffffff16815260200190815260200160002060008860001916600019168152602001908152602001600020819055505050505050505050565b60608061208c6131c6565b600660009054906101000a900473ffffffffffffffffffffffffffffffffffffffff1673ffffffffffffffffffffffffffffffffffffffff163373ffffffffffffffffffffffffffffffffffffffff161415156120e857600080fd5b846000600260008373ffffffffffffffffffffffffffffffffffffffff1673ffffffffffffffffffffffffffffffffffffffff168152602001908152602001600020905060008160010160019054906101000a900473ffffffffffffffffffffffffffffffffffffffff1673ffffffffffffffffffffffffffffffffffffffff1611151561217557600080fd5b6040805190810160405280600781526020017f70617469656e7400000000000000000000000000000000000000000000000000815250878789600060405180807f646f63746f7200000000000000000000000000000000000000000000000000008152506006019050604051809103902060001916856040518082805190602001908083835b60208310151561222057805182526020820191506020810190506020830392506121fb565b6001836020036101000a0380198251168184511680821785525050505050509050019150506040518091039020600019161415612351576000600360008473ffffffffffffffffffffffffffffffffffffffff1673ffffffffffffffffffffffffffffffffffffffff16815260200190815260200160002060008673ffffffffffffffffffffffffffffffffffffffff1673ffffffffffffffffffffffffffffffffffffffff168152602001908152602001600020541115156122e257600080fd5b600460008373ffffffffffffffffffffffffffffffffffffffff1673ffffffffffffffffffffffffffffffffffffffff1681526020019081526020016000206000846000191660001916815260200190815260200160002054905060008111151561234c57600080fd5b612464565b60405180807f70617469656e74000000000000000000000000000000000000000000000000008152506007019050604051809103902060001916856040518082805190602001908083835b6020831015156123c1578051825260208201915060208101905060208303925061239c565b6001836020036101000a038019825116818451168082178552505050505050905001915050604051809103902060001916141561246357600460008573ffffffffffffffffffffffffffffffffffffffff1673ffffffffffffffffffffffffffffffffffffffff1681526020019081526020016000206000846000191660001916815260200190815260200160002054905060008111151561246257600080fd5b5b5b61246d8b612d7f565b9750876000015188602001518191508090509950995050505050505050509250929050565b60608060003360008060008373ffffffffffffffffffffffffffffffffffffffff1673ffffffffffffffffffffffffffffffffffffffff168152602001908152602001600020905060008160010160009054906101000a900473ffffffffffffffffffffffffffffffffffffffff1673ffffffffffffffffffffffffffffffffffffffff1611151561252357600080fd5b6000803373ffffffffffffffffffffffffffffffffffffffff1673ffffffffffffffffffffffffffffffffffffffff16815260200190815260200160002092508260000183600201818054600181600116156101000203166002900480601f0160208091040260200160405190810160405280929190818152602001828054600181600116156101000203166002900480156126005780601f106125d557610100808354040283529160200191612600565b820191906000526020600020905b8154815290600101906020018083116125e357829003601f168201915b505050505091508080548060200260200160405190810160405280929190818152602001828054801561268857602002820191906000526020600020905b8160009054906101000a900473ffffffffffffffffffffffffffffffffffffffff1673ffffffffffffffffffffffffffffffffffffffff168152602001906001019080831161263e575b50505050509050945094505050509091565b60606126a46131c6565b8560606005600083600019166000191681526020019081526020016000206000018054600181600116156101000203166002900480601f0160208091040260200160405190810160405280929190818152602001828054600181600116156101000203166002900480156127595780601f1061272e57610100808354040283529160200191612759565b820191906000526020600020905b81548152906001019060200180831161273c57829003601f168201915b505050505090506000815111151561277057600080fd5b86868987600060405180807f646f63746f7200000000000000000000000000000000000000000000000000008152506006019050604051809103902060001916856040518082805190602001908083835b6020831015156127e657805182526020820191506020810190506020830392506127c1565b6001836020036101000a0380198251168184511680821785525050505050509050019150506040518091039020600019161415612917576000600360008473ffffffffffffffffffffffffffffffffffffffff1673ffffffffffffffffffffffffffffffffffffffff16815260200190815260200160002060008673ffffffffffffffffffffffffffffffffffffffff1673ffffffffffffffffffffffffffffffffffffffff168152602001908152602001600020541115156128a857600080fd5b600460008373ffffffffffffffffffffffffffffffffffffffff1673ffffffffffffffffffffffffffffffffffffffff1681526020019081526020016000206000846000191660001916815260200190815260200160002054905060008111151561291257600080fd5b612a2a565b60405180807f70617469656e74000000000000000000000000000000000000000000000000008152506007019050604051809103902060001916856040518082805190602001908083835b6020831015156129875780518252602082019150602081019050602083039250612962565b6001836020036101000a0380198251168184511680821785525050505050509050019150506040518091039020600019161415612a2957600460008573ffffffffffffffffffffffffffffffffffffffff1673ffffffffffffffffffffffffffffffffffffffff16815260200190815260200160002060008460001916600019168152602001908152602001600020549050600081111515612a2857600080fd5b5b5b612a338d612d7f565b9750876040015198505050505050505050949350505050565b606060008060606000856000600260008373ffffffffffffffffffffffffffffffffffffffff1673ffffffffffffffffffffffffffffffffffffffff168152602001908152602001600020905060008160010160019054906101000a900473ffffffffffffffffffffffffffffffffffffffff1673ffffffffffffffffffffffffffffffffffffffff16111515612ae257600080fd5b3360008060008373ffffffffffffffffffffffffffffffffffffffff1673ffffffffffffffffffffffffffffffffffffffff168152602001908152602001600020905060008160010160009054906101000a900473ffffffffffffffffffffffffffffffffffffffff1673ffffffffffffffffffffffffffffffffffffffff16111515612b6e57600080fd5b600260008b73ffffffffffffffffffffffffffffffffffffffff1673ffffffffffffffffffffffffffffffffffffffff16815260200190815260200160002094506000600360008c73ffffffffffffffffffffffffffffffffffffffff1673ffffffffffffffffffffffffffffffffffffffff16815260200190815260200160002060003373ffffffffffffffffffffffffffffffffffffffff1673ffffffffffffffffffffffffffffffffffffffff16815260200190815260200160002054111515612c3a57600080fd5b846000018560010160009054906101000a900460ff168660010160019054906101000a900473ffffffffffffffffffffffffffffffffffffffff1687600201838054600181600116156101000203166002900480601f016020809104026020016040519081016040528092919081815260200182805460018160011615610100020316600290048015612d0e5780601f10612ce357610100808354040283529160200191612d0e565b820191906000526020600020905b815481529060010190602001808311612cf157829003601f168201915b5050505050935080805480602002602001604051908101604052809291908181526020018280548015612d6457602002820191906000526020600020905b81546000191681526020019060010190808311612d4c575b50505050509050985098509850985050505050509193509193565b612d876131c6565b8160606005600083600019166000191681526020019081526020016000206000018054600181600116156101000203166002900480601f016020809104026020016040519081016040528092919081815260200182805460018160011615610100020316600290048015612e3c5780601f10612e1157610100808354040283529160200191612e3c565b820191906000526020600020905b815481529060010190602001808311612e1f57829003601f168201915b5050505050905060008151111515612e5357600080fd5b60056000856000191660001916815260200190815260200160002060606040519081016040529081600082018054600181600116156101000203166002900480601f016020809104026020016040519081016040528092919081815260200182805460018160011615610100020316600290048015612f135780601f10612ee857610100808354040283529160200191612f13565b820191906000526020600020905b815481529060010190602001808311612ef657829003601f168201915b50505050508152602001600182018054600181600116156101000203166002900480601f016020809104026020016040519081016040528092919081815260200182805460018160011615610100020316600290048015612fb55780601f10612f8a57610100808354040283529160200191612fb5565b820191906000526020600020905b815481529060010190602001808311612f9857829003601f168201915b50505050508152602001600282018054600181600116156101000203166002900480601f0160208091040260200160405190810160405280929190818152602001828054600181600116156101000203166002900480156130575780601f1061302c57610100808354040283529160200191613057565b820191906000526020600020905b81548152906001019060200180831161303a57829003601f168201915b50505050508152505092505050919050565b828054600181600116156101000203166002900490600052602060002090601f016020900481019282601f106130aa57805160ff19168380011785556130d8565b828001600101855582156130d8579182015b828111156130d75782518255916020019190600101906130bc565b5b5090506130e591906131e8565b5090565b828054828255906000526020600020908101928215613162579160200282015b828111156131615782518260006101000a81548173ffffffffffffffffffffffffffffffffffffffff021916908373ffffffffffffffffffffffffffffffffffffffff16021790555091602001919060010190613109565b5b50905061316f919061320d565b5090565b8280548282559060005260206000209081019282156131b5579160200282015b828111156131b4578251829060001916905591602001919060010190613193565b5b5090506131c29190613250565b5090565b6060604051908101604052806060815260200160608152602001606081525090565b61320a91905b808211156132065760008160009055506001016131ee565b5090565b90565b61324d91905b8082111561324957600081816101000a81549073ffffffffffffffffffffffffffffffffffffffff021916905550600101613213565b5090565b90565b61327291905b8082111561326e576000816000905550600101613256565b5090565b905600a165627a7a723058201b67d17e2257df59b9a26992d9b607939fca5848ae0165c9239590826d240acb0029",
  "source": "pragma solidity ^0.4.18;\r\n\r\nimport \"./doctor.sol\";\r\nimport \"./patient.sol\";\r\nimport \"./file.sol\";\r\n\r\ncontract HealthCare is Doctor, Patient, File {\r\n    address private owner;\r\n    \r\n    function HealthCare() {\r\n        owner = msg.sender;\r\n    }\r\n    \r\n    modifier onlyOwner() {\r\n        require(msg.sender == owner);\r\n        _;\r\n    }\r\n    \r\n    modifier checkFileAccess(string role, address id, bytes32 fileHashId, address pat) {\r\n        uint pos;\r\n        if(keccak256(role) == keccak256(\"doctor\")) {\r\n            require(patientToDoctor[pat][id] > 0);\r\n            pos = patientToFile[pat][fileHashId];\r\n            require(pos > 0);   \r\n        }\r\n        else if(keccak256(role) == keccak256(\"patient\")) {\r\n            pos = patientToFile[id][fileHashId];\r\n            require(pos > 0);\r\n        }\r\n        _; \r\n    }\r\n    \r\n    function checkProfile(address _user) public view onlyOwner returns(string, string){\r\n        patient p = patients[_user];\r\n        doctor d = doctors[_user];\r\n          \r\n        if(p.id > 0x0)\r\n            return (p.name, 'patient');\r\n        else if(d.id > 0x0)\r\n            return (d.name, 'doctor');\r\n        else\r\n            return ('', '');\r\n    }\r\n  \r\n    function grantAccessToDoctor(address doctor_id) public checkPatient(msg.sender) checkDoctor(doctor_id) {\r\n        patient p = patients[msg.sender];\r\n        doctor d = doctors[doctor_id];\r\n        require(patientToDoctor[msg.sender][doctor_id] < 1);// this means doctor already been access\r\n      \r\n        uint pos = p.doctor_list.push(doctor_id);// new length of array\r\n\r\n        patientToDoctor[msg.sender][doctor_id] = pos;\r\n        d.patient_list.push(msg.sender);\r\n    }\r\n  \r\n    function addFile(string _file_name, string _file_type, bytes32 _fileHash, string _file_secret) public checkPatient(msg.sender) {\r\n        patient p = patients[msg.sender];\r\n\r\n        require(patientToFile[msg.sender][_fileHash] < 1);\r\n      \r\n        hashToFile[_fileHash] = filesInfo({file_name:_file_name, file_type:_file_type,file_secret:_file_secret});\r\n        uint pos = p.files.push(_fileHash);\r\n        patientToFile[msg.sender][_fileHash] = pos;\r\n    }\r\n    \r\n    function getPatientInfoForDoctor(address pat) public view checkPatient(pat) checkDoctor(msg.sender) returns(string, uint8, address, bytes32[]){\r\n        patient p = patients[pat];\r\n\r\n        require(patientToDoctor[pat][msg.sender] > 0);\r\n\r\n        return (p.name, p.age, p.id, p.files);\r\n    }\r\n    \r\n    function getFileSecret(bytes32 fileHashId, string role, address id, address pat) public view \r\n    checkFile(fileHashId) checkFileAccess(role, id, fileHashId, pat)\r\n    returns(string) {\r\n        filesInfo memory f = getFileInfo(fileHashId);\r\n        return (f.file_secret);\r\n    }\r\n\r\n    function getFileInfoDoctor(address doc, address pat, bytes32 fileHashId) public view \r\n    onlyOwner checkPatient(pat) checkDoctor(doc) checkFileAccess(\"doctor\", doc, fileHashId, pat)\r\n    returns(string, string) {\r\n        filesInfo memory f = getFileInfo(fileHashId);\r\n        return (f.file_name, f.file_type);\r\n    }\r\n  \r\n    function getFileInfoPatient(address pat, bytes32 fileHashId) public view \r\n    onlyOwner checkPatient(pat) checkFileAccess(\"patient\", pat, fileHashId, pat) returns(string, string) {\r\n        filesInfo memory f = getFileInfo(fileHashId);\r\n        return (f.file_name, f.file_type);\r\n    }\r\n  \r\n}",
  "sourcePath": "D:\\Tut\\ethereum_apps\\test\\digital_health_care6\\contracts\\healthCare.sol",
  "compiler": {
    "name": "solc",
    "version": "0.4.24+commit.e67f0147.Emscripten.clang"
  },
  "schemaVersion": "2.0.1",
  "updatedAt": "2018-09-09T09:17:22.959Z"
}