{
  "contractName": "Patient",
  "abi": [
    {
      "constant": true,
      "inputs": [],
      "name": "getPatientInfo",
      "outputs": [
        {
          "name": "",
          "type": "string"
        },
        {
          "name": "",
          "type": "uint8"
        },
        {
          "name": "",
          "type": "bytes32[]"
        },
        {
          "name": "",
          "type": "address[]"
        }
      ],
      "payable": false,
      "stateMutability": "view",
      "type": "function"
    },
    {
      "constant": false,
      "inputs": [
        {
          "name": "_name",
          "type": "string"
        },
        {
          "name": "_age",
          "type": "uint8"
        }
      ],
      "name": "signupPatient",
      "outputs": [],
      "payable": false,
      "stateMutability": "nonpayable",
      "type": "function"
    }
  ],
  "bytecode": "0x608060405234801561001057600080fd5b50610964806100206000396000f30060806040526004361061004c576000357c0100000000000000000000000000000000000000000000000000000000900463ffffffff168063326df664146100515780637120203a1461017e575b600080fd5b34801561005d57600080fd5b506100666101f4565b60405180806020018560ff1660ff1681526020018060200180602001848103845288818151815260200191508051906020019080838360005b838110156100ba57808201518184015260208101905061009f565b50505050905090810190601f1680156100e75780820380516001836020036101000a031916815260200191505b50848103835286818151815260200191508051906020019060200280838360005b83811015610123578082015181840152602081019050610108565b50505050905001848103825285818151815260200191508051906020019060200280838360005b8381101561016557808201518184015260208101905061014a565b5050505090500197505050505050505060405180910390f35b34801561018a57600080fd5b506101f2600480360381019080803590602001908201803590602001908080601f0160208091040260200160405190810160405280939291908181526020018383808284378201915050505050509192919290803560ff169060200190929190505050610472565b005b6060600060608060003360008060008373ffffffffffffffffffffffffffffffffffffffff1673ffffffffffffffffffffffffffffffffffffffff168152602001908152602001600020905060008160010160019054906101000a900473ffffffffffffffffffffffffffffffffffffffff1673ffffffffffffffffffffffffffffffffffffffff1611151561028957600080fd5b6000803373ffffffffffffffffffffffffffffffffffffffff1673ffffffffffffffffffffffffffffffffffffffff1681526020019081526020016000209250826000018360010160009054906101000a900460ff168460020185600301838054600181600116156101000203166002900480601f01602080910402602001604051908101604052809291908181526020018280546001816001161561010002031660029004801561037c5780601f106103515761010080835404028352916020019161037c565b820191906000526020600020905b81548152906001019060200180831161035f57829003601f168201915b50505050509350818054806020026020016040519081016040528092919081815260200182805480156103d257602002820191906000526020600020905b815460001916815260200190600101908083116103ba575b505050505091508080548060200260200160405190810160405280929190818152602001828054801561045a57602002820191906000526020600020905b8160009054906101000a900473ffffffffffffffffffffffffffffffffffffffff1673ffffffffffffffffffffffffffffffffffffffff1681526020019060010190808311610410575b50505050509050965096509650965050505090919293565b60008060003373ffffffffffffffffffffffffffffffffffffffff1673ffffffffffffffffffffffffffffffffffffffff1681526020019081526020016000209050604051806000019050604051809103902060001916836040518082805190602001908083835b6020831015156104ff57805182526020820191506020810190506020830392506104da565b6001836020036101000a0380198251168184511680821785525050505050509050019150506040518091039020600019161415151561053d57600080fd5b60008260ff16118015610553575060648260ff16105b151561055e57600080fd5b60008160010160019054906101000a900473ffffffffffffffffffffffffffffffffffffffff1673ffffffffffffffffffffffffffffffffffffffff16111515156105a857600080fd5b60a0604051908101604052808481526020018360ff1681526020013373ffffffffffffffffffffffffffffffffffffffff168152602001600060405190808252806020026020018201604052801561060f5781602001602082028038833980820191505090505b50815260200160006040519080825280602002602001820160405280156106455781602001602082028038833980820191505090505b508152506000803373ffffffffffffffffffffffffffffffffffffffff1673ffffffffffffffffffffffffffffffffffffffff16815260200190815260200160002060008201518160000190805190602001906106a392919061074e565b5060208201518160010160006101000a81548160ff021916908360ff16021790555060408201518160010160016101000a81548173ffffffffffffffffffffffffffffffffffffffff021916908373ffffffffffffffffffffffffffffffffffffffff16021790555060608201518160020190805190602001906107289291906107ce565b506080820151816003019080519060200190610745929190610821565b50905050505050565b828054600181600116156101000203166002900490600052602060002090601f016020900481019282601f1061078f57805160ff19168380011785556107bd565b828001600101855582156107bd579182015b828111156107bc5782518255916020019190600101906107a1565b5b5090506107ca91906108ab565b5090565b828054828255906000526020600020908101928215610810579160200282015b8281111561080f5782518290600019169055916020019190600101906107ee565b5b50905061081d91906108d0565b5090565b82805482825590600052602060002090810192821561089a579160200282015b828111156108995782518260006101000a81548173ffffffffffffffffffffffffffffffffffffffff021916908373ffffffffffffffffffffffffffffffffffffffff16021790555091602001919060010190610841565b5b5090506108a791906108f5565b5090565b6108cd91905b808211156108c95760008160009055506001016108b1565b5090565b90565b6108f291905b808211156108ee5760008160009055506001016108d6565b5090565b90565b61093591905b8082111561093157600081816101000a81549073ffffffffffffffffffffffffffffffffffffffff0219169055506001016108fb565b5090565b905600a165627a7a723058206897bc748b609a6d61d8cf3ecf7e35394089ba01678724c4556b928449bf854a0029",
  "source": "pragma solidity ^0.4.18;\r\n\r\ncontract Patient {\r\n    mapping (address => patient) internal patients;\r\n    mapping (address => mapping (address => uint)) internal patientToDoctor;\r\n    mapping (address => mapping (bytes32 => uint)) internal patientToFile;\r\n    \r\n    struct patient {\r\n        string name;\r\n        uint8 age;\r\n        address id;\r\n        bytes32[] files;// hashes of file that belong to this user for display purpose\r\n        address[] doctor_list;\r\n    }\r\n    \r\n    modifier checkPatient(address id) {\r\n        patient p = patients[id];\r\n        require(p.id > 0x0);//check if patient exist\r\n        _;\r\n    }\r\n    \r\n    function getPatientInfo() public view checkPatient(msg.sender) returns(string, uint8, bytes32[], address[]) {\r\n        patient p = patients[msg.sender];\r\n        return (p.name, p.age, p.files, p.doctor_list);\r\n    }\r\n    \r\n    function signupPatient(string _name, uint8 _age) public {\r\n        patient p = patients[msg.sender];\r\n        require(keccak256(_name) != keccak256(\"\"));\r\n        require((_age > 0) && (_age < 100));\r\n        require(!(p.id > 0x0));\r\n\r\n        patients[msg.sender] = patient({name:_name,age:_age,id:msg.sender,files:new bytes32[](0),doctor_list:new address[](0)});\r\n    }\r\n\r\n}",
  "sourcePath": "D:\\Tut\\ethereum_apps\\test\\digital_health_care6\\contracts\\patient.sol",
  "compiler": {
    "name": "solc",
    "version": "0.4.24+commit.e67f0147.Emscripten.clang"
  },
  "schemaVersion": "2.0.1",
  "updatedAt": "2018-09-09T09:17:21.996Z"
}